:020000040800F2
:1000000000500020A5040008F5040008F5040008CD
:10001000F5040008F5040008F504000800000000DD
:10002000000000000000000000000000F5040008CF
:10003000F504000800000000F5040008990300081A
:10004000F5040008F5040008F5040008F5040008AC
:10005000F5040008F5040008F10100081502000885
:10006000390200085D02000881020008F50400085A
:10007000F5040008F5040008F5040008F50400087C
:10008000F5040008F5040008F5040008F50400086C
:10009000F5040008F5040008F5040008A5020008AE
:1000A000F5040008F5040008F5040008F50400084C
:1000B000F5040008F5040008F5040008F50400083C
:1000C000F5040008F5040008F5040008F50400082C
:1000D000F5040008F5040008F5040008F50400081C
:1000E00005030008F504000800000000F5040008FE
:1000F000F5040008F5040008F5040008F5040008FC
:10010000F5040008F5040008F5040008F5040008EB
:10011000F5040008F5040008F5040008F5040008DB
:10012000F5040008F5040008F5040008F5040008CB
:1001300010B5054C237833B9044B13B10448AFF321
:1001400000800123237010BD00000020000000008B
:100150004005000808B5034B1BB103490348AFF342
:10016000008008BD000000000400002040050008D9
:1001700080B485B000AF03460A46FB711346BB71DD
:100180000023FB73FB79022B1AD0022B22DC002BFD
:1001900002D0012B0AD01DE0124B9A68BB7922FADB
:1001A00003F3DBB203F00103FB7314E00E4B9A6818
:1001B000BB7922FA03F3DBB203F00103FB730AE01D
:1001C0000A4B9A68BB7922FA03F3DBB203F001030E
:1001D000FB7300E000BFFB7B18461437BD4680BCB4
:1001E000704700BF00080140000C014000100140B2
:1001F00080B500AF054B1B689847054B5B69044A07
:1002000043F00103536100BF80BD00BF1C0000200C
:100210000004014080B500AF054B5B689847054B73
:100220005B69044A43F00203536100BF80BD00BF15
:100230001C0000200004014080B500AF054B9B6806
:100240009847054B5B69044A43F00403536100BFC0
:1002500080BD00BF1C0000200004014080B500AF3D
:10026000054BDB689847054B5B69044A43F008037C
:10027000536100BF80BD00BF1C000020000401408E
:1002800080B500AF054B1B699847054B5B69044A75
:1002900043F01003536100BF80BD00BF1C0000206D
:1002A0000004014080B582B000AF0023BB7105237C
:1002B000FB7115E0114B5A69FB7922FA03F3DBB2AB
:1002C00003F00103BB71BB79012B04D1FB790C4A0C
:1002D00052F8233098470023BB71FB790133FB713F
:1002E000FB79092BE6D9054B5B69044A43F4787323
:1002F000536100BF0837BD4680BD00BF0004014008
:100300001C00002080B582B000AF0023BB710A231F
:10031000FB7115E0114B5A69FB7922FA03F3DBB24A
:1003200003F00103BB71BB79012B04D1FB790C4AAB
:1003300052F8233098470023BB71FB790133FB71DE
:10034000FB790F2BE6D9054B5B69044A43F47C43E8
:10035000536100BF0837BD4680BD00BF00040140A7
:100360001C00002080B400AF0A4B1B68094A23F030
:1003700002031360074B1B68064A23F00103136056
:10038000044B00225A60034B00229A6000BFBD4616
:1003900080BC704710E000E080B582B000AF0A4B2F
:1003A0001B78002B01D1FFF7DDFF084B1B68984736
:1003B000074B1B681B0CDBB203F00103FB7100BF92
:1003C0000837BD4680BD00BF600000205C000020F3
:1003D00010E000E080B500AF0D210220FFF7C8FE5D
:1003E00003461A46254B1A700E210220FFF7C0FE65
:1003F00003461A46224B1A700F210220FFF7B8FE5F
:1004000003461A461F4B1A7000210020FFF7B0FE6A
:1004100003461A461C4B1A7001210020FFF7A8FE64
:1004200003461A46194B1A7002210020FFF7A0FE5E
:1004300003461A46164B1A7003210020FFF798FE58
:1004400003461A46134B1A7004210020FFF790FE52
:1004500003461A46104B1A7005210020FFF788FE4C
:1004600003461A460D4B1A7006210020FFF780FE46
:1004700003461A460A4B1A70AEE700BF610000201F
:10048000620000206300002064000020650000205E
:10049000660000206700002068000020690000203E
:1004A0006A0000200D488546AFF300800C480D49D6
:1004B0000D4A002302E0D458C4500433C4188C42BF
:1004C000F9D30A4A0A4C002301E013600432A24225
:1004D000FBD300F011F8FFF77DFFFEE7005000208E
:1004E000000000200000002060050008000000203F
:1004F0006C000020FEE7000070B500260C4D0D4C8E
:10050000641BA410A64209D100F01AF800260A4D77
:100510000A4C641BA410A64205D170BD55F8043BDB
:1005200098470136EEE755F8043B98470136F2E765
:100530005805000858050008580500085C05000823
:10054000F8B500BFF8BC08BC9E467047F8B500BFC0
:08055000F8BC08BC9E46704790
:040558005501000841
:04055C003101000861
:04000005080004A546
:00000001FF
